:020000040C00EE
:100000000088FE1F010200089902000899020008FA
:1000100099020008990200089902000800000000F7
:10002000000000000000000000000000990200082D
:1000300099020008000000009902000899020008D7
:100040009902000899020008990200089902000824
:100050009902000899020008990200089902000814
:1000600099020008000000000000000000000000ED
:100070009902000800000000990200089902000897
:1000800099020008990200089902000899020008E4
:1000900099020008990200089902000899020008D4
:1000A00099020008990200089902000899020008C4
:1000B00099020008990200089902000899020008B4
:1000C00099020008990200089902000899020008A4
:1000D0009902000899020008990200089902000894
:1000E0009902000899020008990200089902000884
:1000F0009902000899020008990200089902000874
:100100009902000899020008990200089902000863
:100110009902000899020008990200089902000853
:100120009902000899020008990200089902000843
:100130009902000899020008990200089902000833
:100140009902000899020008990200089902000823
:100150009902000899020008990200089902000813
:10016000000000000000000000000000000000008F
:1001700099020008990200089902000899020008F3
:1001800099020008990200089902000899020008E3
:1001900099020008990200089902000899020008D3
:1001A00099020008990200089902000899020008C3
:1001B00099020008990200089902000899020008B3
:1001C00099020008990200089902000899020008A3
:1001D0009902000899020008990200080000000036
:1001E0009902000899020008990200089902000883
:1001F0009902000899020008990200080000000016
:10020000DFF874D01D4880471D4C1E4DAC4209DA02
:1002100021686268A368043BA2BFC858D050FAE7BF
:100220000C34F3E7184B194CA34208DA19685A68E2
:100230000020043AA4BF8850FBE70833F4E71448D1
:100240008047144880470000A00F000C0088FE1F64
:1002500038000000A00F000C0088FE1F0000000006
:100260003888FE1F18010000000000200000000078
:1002700000000020000000000088FE1FC5020008EA
:1002800048020008600200086002000878020008C6
:10029000550F0008B10E0008FEE7000080B485B0DD
:1002A00000AF78600023FB6003E000BFFB68013310
:1002B000FB60FA687B689A42F7D31437BD465DF855
:1002C000047B704798B500AF054A4FF000531446C1
:1002D0000FCB84E80F0000F005F800F03BF898BD64
:1002E000C4FF032080B483B000AF72B6164B174A28
:1002F0009A60BFF34F8F62B6134A134BD3F888301E
:1003000043F47003C2F888300F4A0F4B5B6923F047
:10031000080353610E4B03F5805314331B687B6055
:100320007B6823F00F037B607B6843F004037B60F2
:10033000074B03F5805314337A681A600C37BD46B7
:100340005DF8047B704700BF00ED00E0000000088E
:100350000010005880B500AFA44B1B6803F00103E8
:10036000002B0CD1A14AA14B5B6843F00103536001
:1003700000BF9E4B1B6803F00103002BF9D09C4B80
:100380001B6803F40073002B09D0994A984B9B68B3
:1003900043F40073936041F64C50FFF77FFF954A9A
:1003A000944B5B6843F40023536040F6C410FFF79E
:1003B00075FF904A8F4B5B6823F4803323F0020370
:1003C00053608D4B5B6803F03003002B29D08A4AC1
:1003D000894B5B6823F4702323F03003536000F0F3
:1003E00093F90246854BA3FB02231B0D013B1B0423
:1003F0008149814A526813434B607E4A7D4BDB68DA
:1004000023F00103D3607B4A7A4B5B6823F400330B
:10041000536000BF774B1B6803F46073B3F5607FD4
:10042000F8D1744A734B5B6843F001035360714A1F
:10043000704B5B6843F0100353606E4B704A9A60D8
:100440006C4A6C4B5B6843F040035360694A694BEC
:100450005B6823F010035360664A664B5B6843F4A5
:100460008023536000BF634B1B6803F00403002B21
:10047000F9D0604A5F4B5B6823F00103536000BF13
:100480005C4B1B6803F00103002BF9D15D4B4FF06F
:100490000112DA605B4B00225A615A4B00221A614A
:1004A000584B00221A62574B00225A62554B0322C6
:1004B000DA61544B544A9A61524B01229A63514B70
:1004C000524A9A624B4A4B4B5B6823F0400353609D
:1004D000484B4F4A9A604FF41660FFF7DFFE454BDA
:1004E0004C4A9A604FF46160FFF7D8FE414B4A4A8C
:1004F0009A604FF49650FFF7D1FE3E4B474A9A6000
:1005000041F27070FFF7CAFE3A4B454A9A604FF4C9
:10051000E150FFF7C3FE374A364B5B6923F4803363
:1005200023F002035361344B5B6803F03003002B6C
:1005300031D0304B5A683B4B1340002B07D02D4A2B
:100540002C4B5B6823F4803323F0020353602A4A68
:10055000294B5B6823F4702323F03003536000F0D1
:10056000D3F80246254BA3FB02231B0D013B1B04C2
:100570002149214A526813434B601E4A1D4B5B6858
:1005800023F40033536000BF1A4B1B6803F46073FD
:10059000B3F5607FF8D1174A164B5B6943F001034E
:1005A0005361144A134B5B6943F010035361114BC1
:1005B0001D4A5A610F4A0F4B5B6943F04003536178
:1005C0000C4A0C4B5B6923F010035361094A094B39
:1005D0005B6943F48023536100BF064B1B6903F042
:1005E0000403002BF9D0074B00221FE0004200500B
:1005F0000044005010470050004700506BCA5F6B2A
:10060000002F0B01004600500500010003002001EF
:10061000002F0501002F0301002F0201002F01010F
:10062000002F000102000100006300025A6000F088
:1006300001F880BD80B584B000AF2F4BDB6803F4B8
:100640008033002B3ED02D4BDB6803F00103002BE1
:1006500002D02B4BFB6002E000F056F8F860274B0D
:100660001B6803F00403002B20D0244B9B6803F08D
:1006700070631B0E0133BB60204B9B6803F4FE4389
:100680001B0A01337B601D4B9B6803F4FE031B0CAC
:1006900001333B60BB683A6802FB03F3FA68B2FBC4
:1006A000F3F37A6802FB03F3FB600DE0134B9B68E6
:1006B00003F07F0301333B60FA683B68B2FBF3F35E
:1006C000FB6001E00E4BFB600B4BDB68DBB20133E0
:1006D000FA68B2FBF3F3FB60074B1B6903F00103FD
:1006E0000133FA68B2FBF3F3FB60064AFB68136060
:1006F0001037BD4680BD00BF004600501047005077
:1007000000366E01C0FF032080B400AF024B1846D4
:10071000BD465DF8047B7047001BB70080B483B012
:1007200000AF054B7B607B6850221A600C37BD46DA
:100730005DF8047B704700BF5455000C80B485B051
:1007400000AF78603960074BFB60FB687A681A601D
:10075000054BFB60FB683A681A601437BD465DF8CC
:10076000047B7047F055000CF455000C80B485B044
:1007700000AF78600C4BFB60FB68AA221A600B4B41
:10078000FB60FB6855221A60074BFB60FB68A022E8
:100790001A607B68FB60FB68AA221A601437BD46AA
:1007A0005DF8047B704700BF5455000CA8AA000CEC
:1007B00080B483B000AF054B7B607B68F5221A6084
:1007C0000C37BD465DF8047B704700BF5455000CE4
:1007D00080B584B000AF78603960FFF7E9FFFFF7BC
:1007E0009DFF0023FB6011E0FB689B003A68134407
:1007F0001968FB6801339B003A6813441B6808467C
:100800001946FFF79BFFFB680233FB60FB683F2B39
:10081000EAD97868FFF7AAFF00BF064B03F58053BB
:1008200010331B6803F00103002BF6D11037BD46CF
:1008300080BD00BF0010005880B485B000AF786064
:10084000114BFB60FB68AA221A60104BFB60FB682F
:1008500055221A600C4BFB60FB6880221A600A4B21
:10086000FB60FB68AA221A60084BFB60FB685522FC
:100870001A607B68FB60FB6840221A601437BD4633
:100880005DF8047B704700BF5455000CA8AA000C0B
:1008900080B582B000AF7860FFF78AFF7868FFF715
:1008A000CBFF00BF054B03F5805310331B6803F0EB
:1008B0000103002BF6D10837BD4680BD001000585B
:1008C00080B483B000AF0346FB80044AFB88136109
:1008D0000C37BD465DF8047B704700BF00400050F8
:1008E00080B485B000AF78607B681B0FFB607B68CD
:1008F00023F07043BB60FA6813465B0013449B000F
:100900001A46044B1344BA681A601437BD465DF8A2
:10091000047B70471444005080B485B000AF786009
:100920007B681B0FFB607B6823F07043BB60FA6839
:1009300013465B0013449B001A46044B1344BA68E9
:100940001A601437BD465DF8047B70474846005076
:1009500080B483B000AF78607B681B687A685268A7
:100960009A607B681B687A6892689A6100231846CF
:100970000C37BD465DF8047B704700BF80B500AF03
:100980000648FFF7C9FF0548FFF7AAFF044A044BD2
:100990001B6823F00103136080BD00BF40000020EE
:1009A0000000025080B487B000AFF860B9607A6090
:1009B0003B600023FB757B6803F00303002B04D12D
:1009C0007B6803F00303002B02D00223FB7513E0C6
:1009D0000AE0FB681B68BA6812681A60BB680433D7
:1009E000BB607B68043B7B607B68002BF1D1FB68BC
:1009F0001B689A693B681A60FB7D18461C37BD4628
:100A00005DF8047B704700BF80B400AFBD465DF861
:100A1000047B704780B483B000AF786039607B6836
:100A20001B685A683B681A600C37BD465DF8047B4A
:100A3000704700BF80B485B000AF78600023FB73BF
:100A400016E0FB7B0F4A52F823207B689A420CD8B1
:100A5000FB7B01330B4A52F823207B689A4204D96E
:100A6000FB7B084A52F8233006E0FB7B0133FB7323
:100A7000FB7B092BE5D9002318461437BD465DF8EA
:100A8000047B70470088FE1F80B485B000AF78609B
:100A90000023FB730BE0FB7B0A4A52F823207B68A0
:100AA0009A4201D1FB7B06E0FB7B0133FB73FB7BAE
:100AB000092BF0D9002318461437BD465DF8047B96
:100AC000704700BF0088FE1F80B483B000AF0346AC
:100AD000FB71FB79044A52F8233018460C37BD46A7
:100AE0005DF8047B704700BF0088FE1F80B487B0AC
:100AF00000AFF860B9607A600523FB75BB689B089E
:100B00009B00FA6813443B611C4A7B6852F823201F
:100B1000FB689A4209D87B680133184A52F82320AF
:100B2000FB689A4201D90423FB75144A7B6852F88A
:100B300023203B699A4209D87B6801330F4A52F857
:100B400023203B699A4201D90423FB750B4A7B6839
:100B500052F82320FB689A4209D37B680133074A85
:100B600052F823203B699A4201D20423FB75FB7D96
:100B700018461C37BD465DF8047B70470088FE1F91
:100B800080B485B000AFF860B96011461A460B46D4
:100B9000FB711346BB71114AFB681360104AFB6876
:100BA0001360104ABB6813600F4ABB7913700F4B78
:100BB00000221A60FB79652B04D10D4B4FF6FF72B2
:100BC0001A8002E00A4B00221A800A4B00221A60A7
:100BD0001437BD465DF8047B704700BF3888FE1FA0
:100BE0003C88FE1F4888FE1F4488FE1F4088FE1F69
:100BF0004688FE1F4C89FE1F80B588B000AF786024
:100C000039600023FB610023BB617EE00FE0454BB0
:100C10001B687968BA690A441178434AD154BB69A0
:100C20000133BB613F4B1B6801333E4A13603D4BB0
:100C30001B68FF2B03D83A68BB699A42E7D8394B47
:100C40001B68B3F5807F60D1384B1B6803F5807259
:100C5000374B1B689A4256D8364B1B681846FFF72D
:100C6000E9FE38613869FFF70FFF0346FB73324B2B
:100C70001B881A46FB7B42FA03F303F00103002BA7
:100C80000FD13869FFF704FEFB7B012202FA03F360
:100C90009AB2294B1B889BB213439BB29AB2264B44
:100CA0001A80244B1B6818461F49FFF791FD234B00
:100CB0001B78C82B17D100237B6111E01D4B1A68EC
:100CC0007B699B0013441A687B699B0016490B449F
:100CD0001B689A4201D00223FB617B6901337B616F
:100CE0007B693F2BEAD9134B1B6803F58073114ACC
:100CF00013600E4B1B6803F580730C4A1360094B9D
:100D000000221A6001E00123FB613A68BB699A4244
:100D100003D9FB69002B3FF479AFFB6918462037F4
:100D2000BD4680BD4C89FE1F4C88FE1F4088FE1FBB
:100D30004888FE1F3888FE1F4688FE1F4488FE1F15
:100D400080B500AF0F4B1B68002B17D00E4B1B68F4
:100D500003F580720D4B1B689A420DD20C4B1B6839
:100D600018460C49FFF734FD074B1A68054B1B6802
:100D70001344054A136001E0012300E000231846F4
:100D800080BD00BF4C89FE1F4088FE1F4888FE1FA3
:100D90003888FE1F4C88FE1F80B582B000AF786097
:100DA0007868FFF775FD0837BD4680BD80B584B013
:100DB00000AF786039600023FB7313E0FB7B786839
:100DC00039681A46FFF792FE0346042B07D1FB7BD6
:100DD0001846FFF779FE03461846FFF759FDFB7BDF
:100DE0000133FB73FB7B092BE8D91037BD4680BD6F
:100DF00080B586B000AF78603960FFF7BFFD154859
:100E0000FFF7A6FD3B681A1F07F10C03114879682C
:100E1000FFF7C8FD0346FB7507F10C030D481946A3
:100E2000FFF7F8FDFB7D002B0FD13B689B0803F11A
:100E30008043013B9B007A6813441B683B61FA685E
:100E40003B699A4201D0032300E00023184618377B
:100E5000BD4680BD2C88FE1F80B400AF034B01222D
:100E60009A60BD465DF8047B704700BF00440050A7
:100E700080B500AFFFF7F0FF4FF40060FFF720FDF3
:100E80004FF0E023014AC3F80C2D80BD0401FA05A0
:100E900080B500AFFFF7E0FF0020FFF711FD4FF036
:100EA000E023024AC3F80C2D80BD00BF0401FA05FF
:100EB00080B582B000AF00237B60234B1B683B6092
:100EC0003B68002B25D03B68B3F5602F21D24FF053
:100ED00041603968FFF78CFF0346002B19D11B488E
:100EE0004FF460216422C823FFF74AFE4FF04160AF
:100EF0003968FFF781FEFFF723FF1548FFF74CFF26
:100F000012483968FFF774FF0346002B01D0FFF742
:100F1000BFFF4FF041637B600AE07B681B68002BDA
:100F200003D078680121FFF741FF7B6804337B60C1
:100F30007B68B3F1426FF0D3FFF79AFF00231846A6
:100F40000837BD4680BD00BFFCFF1F0C0000020C2F
:100F50000000010C70B50E4B0E4CE41AA4100025D5
:100F60001E46A54204D056F8253098470135F8E7CB
:100F7000FFF74AFD084C094BE41AA41000251E4651
:100F8000A54204D056F8253098470135F8E770BDE2
:100F90003888FE1F3888FE1F3888FE1F3888FE1FDD
:100FA0000000000C0000010C0000020C0000040C0A
:100FB0000000080C00000C0C0000100C0000140CC9
:100FC0000000180C00001C0C00002C0C200002502B
:080FD00000070000FFFFFFFF16
:10FFE0000FE1C3A500000208FFFFFFFFFFFFFFFFB7
:04FFF000633142EF48
:0400000508000201EC
:00000001FF
